{
  "contractName": "SkillCoin",
  "abi": [
    {
      "inputs": [],
      "stateMutability": "nonpayable",
      "type": "constructor"
    },
    {
      "anonymous": false,
      "inputs": [
        {
          "indexed": true,
          "internalType": "address",
          "name": "_owner",
          "type": "address"
        },
        {
          "indexed": true,
          "internalType": "address",
          "name": "_spender",
          "type": "address"
        },
        {
          "indexed": false,
          "internalType": "uint256",
          "name": "_value",
          "type": "uint256"
        }
      ],
      "name": "Approval",
      "type": "event"
    },
    {
      "anonymous": false,
      "inputs": [
        {
          "indexed": true,
          "internalType": "address",
          "name": "_from",
          "type": "address"
        },
        {
          "indexed": true,
          "internalType": "address",
          "name": "_to",
          "type": "address"
        },
        {
          "indexed": false,
          "internalType": "uint256",
          "name": "_value",
          "type": "uint256"
        }
      ],
      "name": "Transfer",
      "type": "event"
    },
    {
      "inputs": [
        {
          "internalType": "address",
          "name": "",
          "type": "address"
        },
        {
          "internalType": "address",
          "name": "",
          "type": "address"
        }
      ],
      "name": "allowed",
      "outputs": [
        {
          "internalType": "uint256",
          "name": "",
          "type": "uint256"
        }
      ],
      "stateMutability": "view",
      "type": "function"
    },
    {
      "inputs": [
        {
          "internalType": "address",
          "name": "",
          "type": "address"
        }
      ],
      "name": "balances",
      "outputs": [
        {
          "internalType": "uint256",
          "name": "",
          "type": "uint256"
        }
      ],
      "stateMutability": "view",
      "type": "function"
    },
    {
      "inputs": [],
      "name": "contractOwner",
      "outputs": [
        {
          "internalType": "address",
          "name": "",
          "type": "address"
        }
      ],
      "stateMutability": "view",
      "type": "function"
    },
    {
      "inputs": [],
      "name": "decimals",
      "outputs": [
        {
          "internalType": "uint8",
          "name": "",
          "type": "uint8"
        }
      ],
      "stateMutability": "view",
      "type": "function"
    },
    {
      "inputs": [],
      "name": "name",
      "outputs": [
        {
          "internalType": "string",
          "name": "",
          "type": "string"
        }
      ],
      "stateMutability": "view",
      "type": "function"
    },
    {
      "inputs": [],
      "name": "symbol",
      "outputs": [
        {
          "internalType": "string",
          "name": "",
          "type": "string"
        }
      ],
      "stateMutability": "view",
      "type": "function"
    },
    {
      "inputs": [],
      "name": "totalSupply",
      "outputs": [
        {
          "internalType": "uint256",
          "name": "",
          "type": "uint256"
        }
      ],
      "stateMutability": "view",
      "type": "function"
    },
    {
      "inputs": [
        {
          "internalType": "address",
          "name": "_to",
          "type": "address"
        },
        {
          "internalType": "uint256",
          "name": "_value",
          "type": "uint256"
        }
      ],
      "name": "transfer",
      "outputs": [
        {
          "internalType": "bool",
          "name": "success",
          "type": "bool"
        }
      ],
      "stateMutability": "nonpayable",
      "type": "function"
    },
    {
      "inputs": [
        {
          "internalType": "address",
          "name": "_from",
          "type": "address"
        },
        {
          "internalType": "address",
          "name": "_to",
          "type": "address"
        },
        {
          "internalType": "uint256",
          "name": "_value",
          "type": "uint256"
        }
      ],
      "name": "transferFrom",
      "outputs": [
        {
          "internalType": "bool",
          "name": "success",
          "type": "bool"
        }
      ],
      "stateMutability": "nonpayable",
      "type": "function"
    },
    {
      "inputs": [
        {
          "internalType": "address",
          "name": "_owner",
          "type": "address"
        }
      ],
      "name": "balanceOf",
      "outputs": [
        {
          "internalType": "uint256",
          "name": "balance",
          "type": "uint256"
        }
      ],
      "stateMutability": "view",
      "type": "function"
    },
    {
      "inputs": [
        {
          "internalType": "address",
          "name": "_spender",
          "type": "address"
        },
        {
          "internalType": "uint256",
          "name": "_value",
          "type": "uint256"
        }
      ],
      "name": "approve",
      "outputs": [
        {
          "internalType": "bool",
          "name": "success",
          "type": "bool"
        }
      ],
      "stateMutability": "nonpayable",
      "type": "function"
    },
    {
      "inputs": [
        {
          "internalType": "address",
          "name": "_owner",
          "type": "address"
        },
        {
          "internalType": "address",
          "name": "_spender",
          "type": "address"
        }
      ],
      "name": "allowance",
      "outputs": [
        {
          "internalType": "uint256",
          "name": "remaining",
          "type": "uint256"
        }
      ],
      "stateMutability": "view",
      "type": "function"
    }
  ],
  "bytecode": "0x60806040526040518060400160405280600581526020017f536b696c6c000000000000000000000000000000000000000000000000000000815250600490805190602001906200005192919062000165565b506012600560006101000a81548160ff021916908360ff1602179055506040518060400160405280600381526020017f534b4c000000000000000000000000000000000000000000000000000000000081525060069080519060200190620000bb92919062000165565b50348015620000c957600080fd5b506000633b9aca00905033600360006101000a81548173ffffffffffffffffffffffffffffffffffffffff021916908373ffffffffffffffffffffffffffffffffffffffff160217905550806000803373ffffffffffffffffffffffffffffffffffffffff1673ffffffffffffffffffffffffffffffffffffffff16815260200190815260200160002081905550806002819055505062000279565b828054620001739062000244565b90600052602060002090601f016020900481019282620001975760008555620001e3565b82601f10620001b257805160ff1916838001178555620001e3565b82800160010185558215620001e3579182015b82811115620001e2578251825591602001919060010190620001c5565b5b509050620001f29190620001f6565b5090565b5b8082111562000211576000816000905550600101620001f7565b5090565b7f4e487b7100000000000000000000000000000000000000000000000000000000600052602260045260246000fd5b600060028204905060018216806200025d57607f821691505b60208210810362000273576200027262000215565b5b50919050565b61112480620002896000396000f3fe608060405234801561001057600080fd5b50600436106100b45760003560e01c80635c658165116100715780635c658165146101a357806370a08231146101d357806395d89b4114610203578063a9059cbb14610221578063ce606ee014610251578063dd62ed3e1461026f576100b4565b806306fdde03146100b9578063095ea7b3146100d757806318160ddd1461010757806323b872dd1461012557806327e235e314610155578063313ce56714610185575b600080fd5b6100c161029f565b6040516100ce9190610ba3565b60405180910390f35b6100f160048036038101906100ec9190610c5e565b61032d565b6040516100fe9190610cb9565b60405180910390f35b61010f61041f565b60405161011c9190610ce3565b60405180910390f35b61013f600480360381019061013a9190610cfe565b610425565b60405161014c9190610cb9565b60405180910390f35b61016f600480360381019061016a9190610d51565b61070b565b60405161017c9190610ce3565b60405180910390f35b61018d610723565b60405161019a9190610d9a565b60405180910390f35b6101bd60048036038101906101b89190610db5565b610736565b6040516101ca9190610ce3565b60405180910390f35b6101ed60048036038101906101e89190610d51565b61075b565b6040516101fa9190610ce3565b60405180910390f35b61020b6107a3565b6040516102189190610ba3565b60405180910390f35b61023b60048036038101906102369190610c5e565b610831565b6040516102489190610cb9565b60405180910390f35b610259610a5d565b6040516102669190610e04565b60405180910390f35b61028960048036038101906102849190610db5565b610a83565b6040516102969190610ce3565b60405180910390f35b600480546102ac90610e4e565b80601f01602080910402602001604051908101604052809291908181526020018280546102d890610e4e565b80156103255780601f106102fa57610100808354040283529160200191610325565b820191906000526020600020905b81548152906001019060200180831161030857829003601f168201915b505050505081565b600081600160003373ffffffffffffffffffffffffffffffffffffffff1673ffffffffffffffffffffffffffffffffffffffff16815260200190815260200160002060008573ffffffffffffffffffffffffffffffffffffffff1673ffffffffffffffffffffffffffffffffffffffff168152602001908152602001600020819055508273ffffffffffffffffffffffffffffffffffffffff163373ffffffffffffffffffffffffffffffffffffffff167f8c5be1e5ebec7d5bd14f71427d1e84f3dd0314c0f7b2291e5b200ac8c7c3b9258460405161040d9190610ce3565b60405180910390a36001905092915050565b60025481565b600080600160008673ffffffffffffffffffffffffffffffffffffffff1673ffffffffffffffffffffffffffffffffffffffff16815260200190815260200160002060003373ffffffffffffffffffffffffffffffffffffffff1673ffffffffffffffffffffffffffffffffffffffff168152602001908152602001600020549050826000808773ffffffffffffffffffffffffffffffffffffffff1673ffffffffffffffffffffffffffffffffffffffff16815260200190815260200160002054101580156104f55750828110155b610534576040517f08c379a000000000000000000000000000000000000000000000000000000000815260040161052b90610ef1565b60405180910390fd5b826000808673ffffffffffffffffffffffffffffffffffffffff1673ffffffffffffffffffffffffffffffffffffffff16815260200190815260200160002060008282546105829190610f40565b92505081905550826000808773ffffffffffffffffffffffffffffffffffffffff1673ffffffffffffffffffffffffffffffffffffffff16815260200190815260200160002060008282546105d79190610f96565b925050819055507fffffffffffffffffffffffffffffffffffffffffffffffffffffffffffffffff81101561069a5782600160008773ffffffffffffffffffffffffffffffffffffffff1673ffffffffffffffffffffffffffffffffffffffff16815260200190815260200160002060003373ffffffffffffffffffffffffffffffffffffffff1673ffffffffffffffffffffffffffffffffffffffff16815260200190815260200160002060008282546106929190610f96565b925050819055505b8373ffffffffffffffffffffffffffffffffffffffff168573ffffffffffffffffffffffffffffffffffffffff167fddf252ad1be2c89b69c2b068fc378daa952ba7f163c4a11628f55a4df523b3ef856040516106f79190610ce3565b60405180910390a360019150509392505050565b60006020528060005260406000206000915090505481565b600560009054906101000a900460ff1681565b6001602052816000526040600020602052806000526040600020600091509150505481565b60008060008373ffffffffffffffffffffffffffffffffffffffff1673ffffffffffffffffffffffffffffffffffffffff168152602001908152602001600020549050919050565b600680546107b090610e4e565b80601f01602080910402602001604051908101604052809291908181526020018280546107dc90610e4e565b80156108295780601f106107fe57610100808354040283529160200191610829565b820191906000526020600020905b81548152906001019060200180831161080c57829003601f168201915b505050505081565b6000600360009054906101000a900473ffffffffffffffffffffffffffffffffffffffff1673ffffffffffffffffffffffffffffffffffffffff163373ffffffffffffffffffffffffffffffffffffffff16146108c3576040517f08c379a00000000000000000000000000000000000000000000000000000000081526004016108ba9061103c565b60405180910390fd5b816000803373ffffffffffffffffffffffffffffffffffffffff1673ffffffffffffffffffffffffffffffffffffffff168152602001908152602001600020541015610944576040517f08c379a000000000000000000000000000000000000000000000000000000000815260040161093b906110ce565b60405180910390fd5b816000803373ffffffffffffffffffffffffffffffffffffffff1673ffffffffffffffffffffffffffffffffffffffff16815260200190815260200160002060008282546109929190610f96565b92505081905550816000808573ffffffffffffffffffffffffffffffffffffffff1673ffffffffffffffffffffffffffffffffffffffff16815260200190815260200160002060008282546109e79190610f40565b925050819055508273ffffffffffffffffffffffffffffffffffffffff163373ffffffffffffffffffffffffffffffffffffffff167fddf252ad1be2c89b69c2b068fc378daa952ba7f163c4a11628f55a4df523b3ef84604051610a4b9190610ce3565b60405180910390a36001905092915050565b600360009054906101000a900473ffffffffffffffffffffffffffffffffffffffff1681565b6000600160008473ffffffffffffffffffffffffffffffffffffffff1673ffffffffffffffffffffffffffffffffffffffff16815260200190815260200160002060008373ffffffffffffffffffffffffffffffffffffffff1673ffffffffffffffffffffffffffffffffffffffff16815260200190815260200160002054905092915050565b600081519050919050565b600082825260208201905092915050565b60005b83811015610b44578082015181840152602081019050610b29565b83811115610b53576000848401525b50505050565b6000601f19601f8301169050919050565b6000610b7582610b0a565b610b7f8185610b15565b9350610b8f818560208601610b26565b610b9881610b59565b840191505092915050565b60006020820190508181036000830152610bbd8184610b6a565b905092915050565b600080fd5b600073ffffffffffffffffffffffffffffffffffffffff82169050919050565b6000610bf582610bca565b9050919050565b610c0581610bea565b8114610c1057600080fd5b50565b600081359050610c2281610bfc565b92915050565b6000819050919050565b610c3b81610c28565b8114610c4657600080fd5b50565b600081359050610c5881610c32565b92915050565b60008060408385031215610c7557610c74610bc5565b5b6000610c8385828601610c13565b9250506020610c9485828601610c49565b9150509250929050565b60008115159050919050565b610cb381610c9e565b82525050565b6000602082019050610cce6000830184610caa565b92915050565b610cdd81610c28565b82525050565b6000602082019050610cf86000830184610cd4565b92915050565b600080600060608486031215610d1757610d16610bc5565b5b6000610d2586828701610c13565b9350506020610d3686828701610c13565b9250506040610d4786828701610c49565b9150509250925092565b600060208284031215610d6757610d66610bc5565b5b6000610d7584828501610c13565b91505092915050565b600060ff82169050919050565b610d9481610d7e565b82525050565b6000602082019050610daf6000830184610d8b565b92915050565b60008060408385031215610dcc57610dcb610bc5565b5b6000610dda85828601610c13565b9250506020610deb85828601610c13565b9150509250929050565b610dfe81610bea565b82525050565b6000602082019050610e196000830184610df5565b92915050565b7f4e487b7100000000000000000000000000000000000000000000000000000000600052602260045260246000fd5b60006002820490506001821680610e6657607f821691505b602082108103610e7957610e78610e1f565b5b50919050565b7f746f6b656e2062616c616e6365206f7220616c6c6f77616e6365206973206c6f60008201527f776572207468616e20616d6f756e742072657175657374656400000000000000602082015250565b6000610edb603983610b15565b9150610ee682610e7f565b604082019050919050565b60006020820190508181036000830152610f0a81610ece565b9050919050565b7f4e487b7100000000000000000000000000000000000000000000000000000000600052601160045260246000fd5b6000610f4b82610c28565b9150610f5683610c28565b9250827fffffffffffffffffffffffffffffffffffffffffffffffffffffffffffffffff03821115610f8b57610f8a610f11565b5b828201905092915050565b6000610fa182610c28565b9150610fac83610c28565b925082821015610fbf57610fbe610f11565b5b828203905092915050565b7f4f6e6c7920746865206f776e6572206f662074686520636f6e7472616374206360008201527f616e2069737375652061207472616e7366657200000000000000000000000000602082015250565b6000611026603383610b15565b915061103182610fca565b604082019050919050565b6000602082019050818103600083015261105581611019565b9050919050565b7f746f6b656e2062616c616e6365206973206c6f776572207468616e207468652060008201527f76616c7565207265717565737465640000000000000000000000000000000000602082015250565b60006110b8602f83610b15565b91506110c38261105c565b604082019050919050565b600060208201905081810360008301526110e7816110ab565b905091905056fea26469706673582212208c292994e16b888b7d64db797f323a41e00c9bd0c60d2594eb44fa0c694be55d64736f6c634300080e0033",
  "immutableReferences": {},
  "source": "// SPDX-License-Identifier: MIT\npragma solidity ^0.8.14;\nimport './ERC20.sol';\n\ncontract SkillCoin is ERC20 {\n  uint256 private constant MAX_UINT256 = 2**256 - 1;\n  mapping(address => uint256) public balances;\n  mapping(address => mapping(address => uint256)) public allowed;\n  uint256 public totalSupply;\n\n  address public contractOwner;\n\n  /*\n    NOTE:\n    The following variables are OPTIONAL vanities. One does not have to include them.\n    They allow one to customise the token contract & in no way influences the core functionality.\n    Some wallets/interfaces might not even bother to look at this information.\n    */\n  string public name = 'Skill';\n  uint8 public decimals = 18;\n  string public symbol = 'SKL';\n\n  constructor() {\n    uint256 _initialAmount = 1000000000;\n\n    contractOwner = msg.sender;\n\n    balances[msg.sender] = _initialAmount; // Give the creator all initial tokens\n    totalSupply = _initialAmount; // Update total supply\n  }\n\n  function transfer(address _to, uint256 _value) public override returns (bool success) {\n    require(msg.sender == contractOwner, 'Only the owner of the contract can issue a transfer');\n    require(balances[msg.sender] >= _value, 'token balance is lower than the value requested');\n    balances[msg.sender] -= _value;\n    balances[_to] += _value;\n    emit Transfer(msg.sender, _to, _value); //solhint-disable-line indent, no-unused-vars\n    return true;\n  }\n\n  function transferFrom(\n    address _from,\n    address _to,\n    uint256 _value\n  ) public override returns (bool success) {\n    uint256 allowance_ = allowed[_from][msg.sender];\n    require(\n      balances[_from] >= _value && allowance_ >= _value,\n      'token balance or allowance is lower than amount requested'\n    );\n    balances[_to] += _value;\n    balances[_from] -= _value;\n    if (allowance_ < MAX_UINT256) {\n      allowed[_from][msg.sender] -= _value;\n    }\n    emit Transfer(_from, _to, _value); //solhint-disable-line indent, no-unused-vars\n    return true;\n  }\n\n  function balanceOf(address _owner) public view override returns (uint256 balance) {\n    return balances[_owner];\n  }\n\n  function approve(address _spender, uint256 _value) public override returns (bool success) {\n    allowed[msg.sender][_spender] = _value;\n    emit Approval(msg.sender, _spender, _value); //solhint-disable-line indent, no-unused-vars\n    return true;\n  }\n\n  function allowance(address _owner, address _spender) public view override returns (uint256 remaining) {\n    return allowed[_owner][_spender];\n  }\n}\n",
  "sourcePath": "/Users/davidle/projects/skill-coin/contracts/SkillCoin.sol",
  "compiler": {
    "name": "solc",
    "version": "0.8.14+commit.80d49f37.Emscripten.clang"
  },
  "schemaVersion": "3.4.7",
  "updatedAt": "2022-05-27T04:47:33.152Z",
  "devdoc": {
    "kind": "dev",
    "methods": {
      "allowance(address,address)": {
        "params": {
          "_owner": "The address of the account owning tokens",
          "_spender": "The address of the account able to transfer the tokens"
        },
        "returns": {
          "remaining": "Amount of remaining tokens allowed to spent"
        }
      },
      "approve(address,uint256)": {
        "params": {
          "_spender": "The address of the account able to transfer the tokens",
          "_value": "The amount of wei to be approved for transfer"
        },
        "returns": {
          "success": "Whether the approval was successful or not"
        }
      },
      "balanceOf(address)": {
        "params": {
          "_owner": "The address from which the balance will be retrieved"
        },
        "returns": {
          "balance": "the balance"
        }
      },
      "transfer(address,uint256)": {
        "params": {
          "_to": "The address of the recipient",
          "_value": "The amount of token to be transferred"
        },
        "returns": {
          "success": "Whether the transfer was successful or not"
        }
      },
      "transferFrom(address,address,uint256)": {
        "params": {
          "_from": "The address of the sender",
          "_to": "The address of the recipient",
          "_value": "The amount of token to be transferred"
        },
        "returns": {
          "success": "Whether the transfer was successful or not"
        }
      }
    },
    "stateVariables": {
      "totalSupply": {
        "return": "the total supply",
        "returns": {
          "_0": "the total supply"
        }
      }
    },
    "version": 1
  },
  "userdoc": {
    "kind": "user",
    "methods": {
      "approve(address,uint256)": {
        "notice": "`msg.sender` approves `_addr` to spend `_value` tokens"
      },
      "totalSupply()": {
        "notice": "Get the total supply"
      },
      "transfer(address,uint256)": {
        "notice": "send `_value` token to `_to` from `msg.sender`"
      },
      "transferFrom(address,address,uint256)": {
        "notice": "send `_value` token to `_to` from `_from` on the condition it is approved by `_from`"
      }
    },
    "version": 1
  }
}